:100000000C9436000C94C0070C94DD070C945E0031
:100010000C945E000C945E000C945E000C945E00E8
:100020000C945E000C945E000C945E000C945E00D8
:100030000C945E000C945E000C945E000C945E00C8
:100040000C94FA070C945E000C9483070C945E00E9
:100050000C945E000C945E000C945E000C945E00A8
:100060000C945E000C945E00CB06CE0811241FBEDB
:10007000CFEFD8E0DEBFCDBF11E0A0E0B1E0E8E116
:10008000F3E102C005900D92AA36B107D9F712E04C
:10009000AAE6B1E001C01D92A434B107E1F710E077
:1000A000CCE6D0E004C02297FE010E948609C83643
:1000B000D107C9F70E943B070C948A090C940000F1
:1000C000AF92BF92CF92DF92EF92FF920F931F9366
:1000D0007B016A0159010E940D0365E585E50E94D7
:1000E000D801C7010E944D03C6010E947703C501D4
:1000F0000E941103C8010E942F031F910F91FF90CE
:10010000EF90DF90CF90BF90AF900895FC0182E612
:1001100091E091838083748363835683458308953C
:100120000F931F93CF93DF93EC018A810E94B70551
:100130008A810E944305EA81F0E0EE0FFF1FE65935
:10014000FE4F11821082DF91CF911F910F91089580
:10015000FC0182810E94DF030895CF93DF93EC01BD
:100160008A810E949503843161F0882351F08C319B
:1001700031F48A810E94DF0320E0892B19F021E00D
:1001800001C020E0822FDF91CF9108950F931F933C
:10019000DF93CF930F92CDB7DEB78C01FC01828144
:1001A0000E94DF03892B19F42FEF3FEF0CC041E0D1
:1001B00050E0BE016F5F7F4FF80182810E943706D9
:1001C0008981282F30E0C9010F90CF91DF911F91D5
:1001D0000F910895DF93CF930F92CDB7DEB7698368
:1001E00041E050E0BE016F5F7F4FFC0182810E94C1
:1001F0005B060F90CF91DF9108951F93CF93DF930C
:10020000EC018FEF8A8310E0812F0E9495038823F1
:1002100009F41A831F5F1430B9F78A818F3F19F1EF
:1002200020917301309174012F5F3F4F309374011F
:10023000209373014D815E8161E00E94D6054D815E
:100240005E816B817C818A810E94560503C08A8110
:100250000E949503882339F08A810E949503873193
:10026000B1F781E001C080E0DF91CF911F91089547
:10027000E82FF0E0EE0FFF1FEB57FE4F80819181DA
:100280000895282F84B18C6284B92A9A85B1877D1C
:1002900085B980E58CBD2A9880EF8EBD0DB407FE30
:1002A000FDCF9EBD0DB407FEFDCF2EBD0DB407FEE4
:1002B000FDCF6EBD0DB407FEFDCF2A9A81E00895F3
:1002C000282F84B18C6284B92A9A85B1877D85B93B
:1002D00080E58CBD2A988FE08EBD0DB407FEFDCF62
:1002E0009EBD0DB407FEFDCF2EBD0DB407FEFDCFA4
:1002F0001EBC0DB407FEFDCF8EB52A9A0895DC0111
:1003000084B18C6284B92A9A85B1877D85B980E5EC
:100310008CBD20E030E090EF19C02A989EBD0DB44E
:1003200007FEFDCFBEBD0DB407FEFDCFAEBD0DB4C3
:1003300007FEFDCFFB01E20FF31F80818EBD0DB4E0
:1003400007FEFDCF2A9A2F5F3F4F119624173507DE
:1003500020F3CA010895DC0184B18C6284B92A9A21
:1003600085B1877D85B980E58CBD20E030E09FE0D8
:100370001AC02A989EBD0DB407FEFDCFBEBD0DB4B8
:1003800007FEFDCFAEBD0DB407FEFDCF1EBC0DB404
:1003900007FEFDCF8EB5FB01E20FF31F80832A9A83
:1003A0002F5F3F4F11962417350718F3CA010895A0
:1003B0002F923F924F925F926F927F928F929F9275
:1003C000AF92BF92CF92DF92EF92FF920F931F9363
:1003D000DF93CF9300D000D0CDB7DEB7182F062F14
:1003E000682F8BE190E00E944101602F8AE190E04C
:1003F0000E94410180E090E49093960180939501E2
:1004000080E090E690939E0180939D0165E871E005
:100410008DE891E09C838B83FDE7CF2EF1E0DF2E0A
:10042000E5E7EE2EE1E0FE2EAA24BB246624772425
:100430008824992440E050E0E12FF0E0FA83E9833A
:10044000202E3324FB0111821082EB81FC8111826A
:100450001082F0E06F16F0E27F06DCF589819A8168
:10046000042E02C0959587950A94E2F783709070E8
:1004700081309105A1F0823091051CF4892B39F06F
:1004800028C08230910599F0039719F518C080E0D3
:1004900094E0FB01918380838FEF93E017C080E0AD
:1004A00098E0FB01918380838FEF97E00FC080E09D
:1004B00090E1FB01918380838FEF9FE007C080E094
:1004C00090E2FB01918380838FEF9FE1F70191839D
:1004D000808390E0891690E299060CF03EC0C1013D
:1004E000042E02C0959587950A94E2F78370907068
:1004F00081309105A9F0823091051CF4892B39F0E7
:100500002CC082309105A9F0039739F51BC080E01B
:1005100094E0EB81FC81918380838FEF93E01AC09C
:1005200080E098E0EB81FC81918380838FEF97E0FE
:1005300011C080E090E1EB81FC81918380838FEF9B
:100540009FE008C080E090E2EB81FC819183808392
:100550008FEF9FE1F60191838083FB014080518002
:10056000EB81FC8100811181A114B104F1F0FA0149
:10057000EB56FE4FDA01AD57BE4F8D919C913291F3
:1005800022913296820F931F91838083FA01E35662
:10059000FE4FDA01A557BE4F8D919C913291229169
:1005A0003296820F931F918380830894A11CB11C03
:1005B0006E5F7F4F4E5F5F4F8B819C8102969C8365
:1005C0008B83E2E0F0E0CE0EDF1EEE0EFF1EF4E0C5
:1005D000AF16B10429F0640C751C800E911E32CF49
:1005E0000F900F900F900F90CF91DF911F910F916F
:1005F000FF90EF90DF90CF90BF90AF909F908F9043
:100600007F906F905F904F903F902F900895682F4C
:1006100080E090E80E944101089580E80E9407036D
:1006200008950F931F938C01FC01608181E090E09D
:100630000E944101F801618182E090E00E94410145
:10064000F801628183E090E00E944101F80163813A
:1006500084E090E00E9441011F910F9108950F9353
:100660001F938C01FC01608185E090E00E944101B4
:10067000F801618186E090E00E944101F801628109
:1006800087E090E00E944101F801638188E090E0FA
:100690000E9441011F910F9108950F931F938C01A8
:1006A000FC01608189E090E00E944101F8016181D4
:1006B0008AE090E00E944101F80162818BE090E0C5
:1006C0000E944101F80163818CE090E00E944101A9
:1006D000F80164818DE090E00E944101F80165819C
:1006E0008EE090E00E9441011F910F9108950F93B9
:1006F0001F938C01FC0160818FE090E00E9441011A
:10070000F801618180E190E00E944101F80162817D
:1007100081E190E00E944101F801638182E190E073
:100720000E9441011F910F91089590E0982F882712
:100730008D5F9B4F0E94600108958F929F92AF92B0
:10074000BF92CF92DF92EF92FF920F931F93CF93BE
:10075000DF9390E0982F8827805E9B4F4C015C01CF
:100760000894A11CB11CC0E0D0E0C4010E9460014B
:10077000F82EEE24C5010E9460016701C80ED11C4D
:10078000C114D10459F0C4010E946001182F00E087
:10079000C5010E946001E801C80FD11DCC15DD051F
:1007A00021F7CE01DF91CF911F910F91FF90EF9034
:1007B000DF90CF90BF90AF909F908F9008958F92D1
:1007C0009F92AF92BF92CF92DF92EF92FF920F93E0
:1007D0001F93CF93DF9390E00496982F882716E21B
:1007E000812E912C880E991EB7E2AB2EB12CA80E4B
:1007F000B91EC0E0D0E0C4010E946001F82EEE24D2
:10080000C5010E9460016701C80ED11CC114D1044A
:1008100059F0C4010E946001182F00E0C5010E9438
:100820006001E801C80FD11DCC15DD0521F7CE010F
:10083000DF91CF911F910F91FF90EF90DF90CF90BC
:10084000BF90AF909F908F900895CF92DF92EF92DC
:10085000FF920F931F93CF93DF937B01E901E82F62
:10086000F0E0EE0FFF1FDF01AB58BE4F8D919C9162
:100870004823592385E9C82E81E0D82ECE0EDF1EED
:10088000D6012D913C91240F351FEB57FE4F01905F
:10089000F081E02DCA018C0F9D1FE817F90788F43D
:1008A0008F01041B150BA801C9010E947F01C01B09
:1008B000D10B0E0D1F1DAE01B801F6018081918193
:1008C00002C0AE01C9010E947F01DF91CF911F914B
:1008D0000F91FF90EF90DF90CF9008957F928F92CD
:1008E0009F92AF92BF92CF92DF92EF92FF920F93BF
:1008F0001F93782E4B015A01E82EFF2484E090E0EC
:10090000E80EF91EFE2CEE2424E2C22ED12CCE0CD1
:10091000DF1CC6010E946001182F00E085E290E014
:10092000E80EF91EC7010E946001080F111D950114
:10093000A801B401872D0E9425040A0D1B1D612FFB
:10094000C6010E944101602FC7010E9441011F9111
:100950000F91FF90EF90DF90CF90BF90AF909F905E
:100960008F907F900895CF92DF92EF92FF920F9336
:100970001F93CF93DF937A01E901E82FF0E0EE0FA8
:10098000FF1FDF01A358BE4F8D919C9168237923EF
:100990004DE9C42E41E0D42ECE0EDF1ED6012D919E
:1009A0003C91260F371FE357FE4F0190F081E02D59
:1009B000CE01860F971FE817F90790F48F01061BE9
:1009C000170BA801B701C9010E94AB01C01BD10BD5
:1009D0000E0D1F1DAE01B801F6018081918103C08B
:1009E000AE01B701C9010E94AB01DF91CF911F9108
:1009F0000F91FF90EF90DF90CF9008957F928F92AC
:100A00009F92AF92BF92CF92DF92EF92FF920F939D
:100A10001F93782E4B015A01E82EFF2484E090E0CA
:100A2000E80EF91EFE2CEE2468E2C62ED12CCE0C68
:100A3000DF1CC6010E946001182F00E089E290E0EF
:100A4000E80EF91EC7010E946001080F111D9501F3
:100A5000A401B801872D0E94B3040A0D1B1D612F4C
:100A6000C6010E944101602FC7010E9441011F91F0
:100A70000F91FF90EF90DF90CF90BF90AF909F903D
:100A80008F907F900895CF93DF9390E0D82FCC275D
:100A9000CF5FDB4F68E0CE010E944101CE010E9492
:100AA00060018823D9F7DF91CF910895CF92DF922B
:100AB000EF92FF920F931F93CF93DF93082FEB01D9
:100AC0006A0168816F3F51F489818F3F91F48A8177
:100AD0008F3F79F48B818F3F61F43FC0662349F4E7
:100AE0008981882331F48A81882319F48B818823B2
:100AF000A1F1C114D10489F110E00C5F1F4FF02E59
:100B0000EE24C7010C960E9441016981C7010D9630
:100B10000E9441016A81C7010E960E9441016B81CA
:100B2000C7010F960E9441018701005F1F4F6D2D85
:100B3000C8010E9441016C2DC80101960E9441012B
:100B4000E701219664E0CE010E944101CE010E949E
:100B500060018823D9F781E001C080E0DF91CF9167
:100B60001F910F91FF90EF90DF90CF9008950F931A
:100B70001F93CF93DF93082F10E00C5F1F4FD02FF0
:100B8000CC27219660E1CE010E944101CE010E9456
:100B900060018823D9F7902F88276FEF02960E9473
:100BA0004101DF91CF911F910F910895CF92DF9274
:100BB000EF92FF920F931F93CF93DF93082FE62EB0
:100BC000EA01F22E862F8150853010F080E046C079
:100BD000802F0E94B70510E00C5F1F4FD02ECC2451
:100BE000FE286F2DC6010E944101B6E0000F111FC3
:100BF000BA95E1F7209761F00F5F1F4F000F111FAB
:100C0000000F111F6D2FC8010E9441016C2F15C0EC
:100C10008091A5019091A60101969093A6018093E1
:100C2000A5010F5F1F4F000F111F000F111F692F2C
:100C3000C8010E9441016091A501C80101960E946E
:100C4000410186010F5F1F4F61E0C8010E94410111
:100C5000C8010E9460018823D9F781E0DF91CF911C
:100C60001F910F91FF90EF90DF90CF900895FF922A
:100C70000F931F93CF93DF93F82E8A0141155105EF
:100C800019F440E050E010C00E94FE04DF2DC0E0E7
:100C9000CF5FDB4F60E4CE010E944101CE010E9494
:100CA00060018823D9F7A801CA01DF91CF911F9174
:100CB0000F91FF9008956F927F928F929F92BF92B3
:100CC000CF92DF92EF92FF920F931F93CF93DF9318
:100CD000B82E3B01EA010E9438018C179D0710F0E5
:100CE0008E0104C08B2D0E9438018C01EB2CFF2457
:100CF00084E090E0E80EF91EDE2CCC2453E0852E33
:100D0000912C8C0C9D1C8B2D0E949D03EC01C40129
:100D10000E946001873129F08C3119F000E010E069
:100D200003C0C017D10778F3A801B3018B2D0E942F
:100D30006E04E601219660E2CE010E944101CE01DF
:100D40000E9460018823D9F70BC0C4010E94600192
:100D5000882349F48B2D0E94B70500E010E00CC0F9
:100D6000DE2DCC272296CE010E94600184FFEDCFBC
:100D700060E1CE010E944101C801DF91CF911F9136
:100D80000F91FF90EF90DF90CF90BF909F908F904A
:100D90007F906F90089540E550E062E571E087EA4A
:100DA00091E00E948600089587EA91E00E94A800E1
:100DB000892B49F087EA91E00E94C600682F82ECF7
:100DC00091E00E94DE0887EA91E00E94AD0088234E
:100DD00079F482EC91E00E94FE0860E071E082EC20
:100DE00091E00E94150987EA91E00E949000FFCFF0
:100DF00008950F931F930AE511E026E531E04EE4D4
:100E000051E068E471E082E791E00E94600040E018
:100E100052EC61E070E082EC91E00E94D90868EE4B
:100E200073E080E090E00E946A086FE071E082EC7D
:100E300091E00E94150987EA91E00E94FD00882355
:100E400089F06DE171E082EC91E00E94150967E2A2
:100E500071E087EA91E00E94150987EA91E00E941B
:100E6000FE0806C066E371E082EC91E00E9415097D
:100E70001F910F9108950E9494080E94F9060E9404
:100E8000D406FDCFEF92FF920F931F937B018C014D
:100E900022E030E040E050E00E945509205C3D4BEC
:100EA000404F5F4FCA01B901A80197010E9455093F
:100EB000C901DA010197A109B109292F3A2F4B2F56
:100EC000552747FD5A950196A11DB11D2093C500D8
:100ED00081508093C400E1ECF0E0808180618083E8
:100EE0008081886080838081806880831F910F91DA
:100EF000FF90EF900895982F8091C00085FFFCCF60
:100F00009093C60008951F920F920FB60F9211246E
:100F10002F933F934F935F936F937F938F939F9301
:100F2000AF93BF93EF93FF934091C600E091AE0162
:100F3000F091AF01CF01019660E870E00E942009B6
:100F40009C018091B0019091B1012817390739F0C7
:100F5000EC53FE4F40833093AF012093AE01FF91DD
:100F6000EF91BF91AF919F918F917F916F915F9121
:100F70004F913F912F910F900FBE0F901F9018959A
:100F80001F920F920FB60F9211248F939F93EF939E
:100F9000FF938091B2019091B301892B29F0E091E8
:100FA000B201F091B3010995FF91EF919F918F915B
:100FB0000F900FBE0F901F9018951F920F920FB6B3
:100FC0000F9211248F939F93EF93FF938091B4011D
:100FD0009091B501892B29F0E091B401F091B50110
:100FE0000995FF91EF919F918F910F900FBE0F90F8
:100FF0001F9018951F920F920FB60F9211242F93E6
:101000008F939F93AF93BF938091B6019091B70157
:10101000A091B801B091B9010196A11DB11D8093B5
:10102000B6019093B701A093B801B093B901809134
:10103000BA019091BB01A091BC01B091BD0180505B
:10104000904CAF4FBF4F8093BA019093BB01A093D8
:10105000BC01B093BD0127C08091BA019091BB0142
:10106000A091BC01B091BD0180589E43A040B0400A
:101070008093BA019093BB01A093BC01B093BD01D2
:101080008091BE019091BF01A091C001B091C101BA
:101090000196A11DB11D8093BE019093BF01A09345
:1010A000C001B093C1018091BA019091BB01A091A0
:1010B000BC01B091BD0181589E43A040B04060F694
:1010C000BF91AF919F918F912F910F900FBE0F9075
:1010D0001F901895EF92FF920F931F937B018C0145
:1010E0008FB7F8944091BE015091BF016091C0014B
:1010F0007091C1018FBF2FB7F8948091BE0190917C
:10110000BF01A091C001B091C1012FBF841B950BFD
:10111000A60BB70BE816F9060A071B0760F71F9125
:101120000F91FF90EF900895789484B5826084BD0C
:1011300084B5816084BD85B5826085BD85B58160DB
:1011400085BDEEE6F0E0808181608083E1E8F0E03B
:10115000808182608083808181608083E0E8F0E02C
:10116000808181608083E1EBF0E080818460808316
:10117000E0EBF0E0808181608083EAE7F0E080814D
:1011800084608083808182608083808181608083AD
:101190008081806880831092C100089588E691E084
:1011A0009093C3018093C2010895862F0E947B070C
:1011B0000895CB01BA010E9442070895DC01ED9128
:1011C000FC910190F081E02D099508950F931F93F4
:1011D000CF93DF938C01EB0109C02196D801ED91EB
:1011E000FC910190F081E02DC8010995688166238A
:1011F000A1F7DF91CF911F910F9108950F931F9346
:101200008C01DC01ED91FC910190F081E02D6DE00D
:101210000995D801ED91FC910190F081E02D6AE0F3
:10122000C80109951F910F9108950F931F938C0189
:101230000E94E608C8010E94FE081F910F910895C0
:1012400097FB092E07260AD077FD04D049D006D097
:1012500000201AF4709561957F4F0895F6F79095E8
:1012600081959F4F0895A1E21A2EAA1BBB1BFD0179
:101270000DC0AA1FBB1FEE1FFF1FA217B307E40775
:10128000F50720F0A21BB30BE40BF50B661F771FCD
:10129000881F991F1A9469F76095709580959095AD
:1012A0009B01AC01BD01CF01089597FB092E0526D6
:1012B0000ED057FD04D0D7DF0AD0001C38F450956B
:1012C0004095309521953F4F4F4F5F4F0895F6F76A
:1012D00090958095709561957F4F8F4F9F4F0895A2
:1012E000AA1BBB1B51E107C0AA1FBB1FA617B7074C
:1012F00010F0A61BB70B881F991F5A95A9F7809568
:101300009095BC01CD010895EE0FFF1F0590F4915B
:08131000E02D0994F894FFCFD1
:10131800646973636F6E6E656374696E672E0063CC
:101328006F6E6E656374696E672E2E2E00636F6E26
:101338006E656374656400474554202F20485454F3
:10134800502F312E3000636F6E6E656374696F6E57
:10135800206661696C656400DEADBEEFFEEDC0A875
:10136800191740BFCB1EC0A81901FFFFFF000000DE
:0A1378000000EA0000000000D508A4
:00000001FF
