:100000000C9436000C94CF0E0C94FC0E0C945E00F5
:100010000C945E000C945E000C945E000C945E00E8
:100020000C945E000C945E000C945E000C945E00D8
:100030000C945E000C945E000C945E000C945E00C8
:100040000C94290F0C945E000C94920E0C945E009C
:100050000C945E000C945E000C945E000C945E00A8
:100060000C945E000C945E00CC0C0B1011241FBE8F
:10007000CFEFD8E0DEBFCDBF12E0A0E0B1E0E2E913
:10008000F1E202C005900D92A431B107D9F713E057
:10009000A4E1B2E001C01D92A031B107E1F710E088
:1000A000CCE6D0E004C02297FE010E94C310C836FF
:1000B000D107C9F70E944A0E0C94C7100C94000097
:1000C000CF93DF93BC018230910510F462E070E0C1
:1000D000A0910E03B0910F03ED01E0E0F0E040E0ED
:1000E00050E021C0888199818617970769F48A8139
:1000F0009B81309719F09383828304C090930F0300
:1001000080930E03FE0134C06817790738F4411557
:10011000510519F08417950708F4AC01FE018A8196
:100120009B819C01E9012097E9F641155105A9F150
:10013000CA01861B970B049708F4BA01E0E0F0E0CF
:100140002AC08D919C91119784179507F9F4641733
:10015000750781F412968D919C911397309719F041
:100160009383828304C090930F0380930E03FD0159
:1001700032964CC0CA01861B970BFD01E80FF91F90
:100180006193719302978D939C9340C0FD0182818E
:1001900093819C01D9011097A1F680910C03909155
:1001A0000D03892B41F48091F9019091FA0190930C
:1001B0000D0380930C034091FB015091FC0141150C
:1001C000510541F44DB75EB78091F7019091F80168
:1001D000481B590B20910C0330910D03CA01821B5F
:1001E000930B8617970780F0AB014E5F5F4F841724
:1001F000950750F0420F531F50930D0340930C038B
:10020000F9016193719302C0E0E0F0E0CF01DF916A
:10021000CF910895CF93DF93009709F450C0EC017C
:1002200022971B821A82A0910E03B0910F031097A0
:1002300009F140E050E0AC17BD0708F1BB83AA8389
:10024000FE0121913191E20FF31FAE17BF0779F440
:100250008D919C911197280F391F2E5F3F4F398345
:10026000288312968D919C9113979B838A834115C5
:10027000510571F4D0930F03C0930E0320C0129662
:100280008D919C911397AD01009711F0DC01D3CFB4
:10029000FA01D383C28321913191E20FF31FCE176C
:1002A000DF0769F488819981280F391F2E5F3F4F3E
:1002B000FA01318320838A819B8193838283DF913A
:1002C000CF910895FB01DC0104C08D91019080194C
:1002D00021F441505040C8F7881B990B0895FB0149
:1002E000DC0101900D920020E1F70895FB019F01D0
:1002F000E8944230C4F04532B4F44A3029F497FB14
:100300001EF4909581959F4F642F77270E94AD1022
:10031000805D8A330CF0895D8193CB010097A1F752
:1003200016F45DE251931082C9010C949701DC012F
:10033000FC01672F71917723E1F7329704C07C911C
:100340006D9370836291AE17BF07C8F30895FC01E7
:100350008BE092E09183808374836383568345832B
:1003600008950F931F938C01DC0112968C910E94CB
:100370007A0BF80182810E94060BD8011296EC914B
:10038000F0E0EE0FFF1FEC5EFD4F118210821F9117
:100390000F910895FC0182810E94A4090895CF93D2
:1003A000DF93EC018A810E945A09843161F088232D
:1003B00051F08C3131F48A810E94A40920E0892B0C
:1003C00019F021E001C020E0822FDF91CF91089544
:1003D0000F931F93DF93CF930F92CDB7DEB78C01AE
:1003E000FC0182810E94A409892B19F42FEF3FEFB1
:1003F0000CC0F8018281BE016F5F7F4F41E050E089
:100400000E94FD0B8981282F30E0C9010F90CF9108
:10041000DF911F910F910895DF93CF930F92CDB786
:10042000DEB76983FC018281BE016F5F7F4F41E0CF
:1004300050E00E94210C0F90CF91DF9108951F93FF
:10044000CF93DF93EC018FEF8A8310E0812F0E941E
:100450005A09882309F41A831F5F1430B9F78A8177
:100460008F3F19F120911C0230911D022F5F3F4FE9
:1004700030931D0220931C024D815E8161E00E9439
:10048000990B6B817C814D815E818A810E94190B61
:1004900003C08A810E945A09882339F08A810E9408
:1004A0005A098731B1F781E001C080E0DF91CF9137
:1004B0001F910895CF93DF93FB01EC018A8D9B8DF3
:1004C000AC8DBD8D80839183A283B383DF91CF9167
:1004D0000895CF93DF93FB01EC018E899F89A88D4E
:1004E000B98D80839183A283B383DF91CF910895E7
:1004F000CF93DF93FB01EC018A899B89AC89BD898D
:1005000080839183A283B383DF91CF910895CF93AA
:10051000DF93FB01EC018E859F85A889B9898083D3
:100520009183A283B383DF91CF910895CF93DF931B
:10053000FB01EC018A859B85AC85BD858083918319
:10054000A283B383DF91CF910895DB01FC01349640
:1005500086E001900D928150E1F708952F923F922D
:100560004F925F926F927F928F929F92AF92BF92C3
:10057000CF92DF92EF92FF920F931F93DF93CF936F
:10058000CDB7DEB728970FB6F894DEBF0FBECDBF4C
:100590004C015A016B010E94990F7B018C0186E28C
:1005A00094E00E942507882309F0D4C087E294E0F4
:1005B0000E942507882309F0CDC00E94990F6E196B
:1005C0007F09800B910BA616B706C806D90638F727
:1005D000FF24FA94A5C09F2D80E08E0D911D8334D9
:1005E000910509F07FC0B4016C5F7F4FC6014C9646
:1005F00046E050E00E946201009709F090C0D601E9
:100600001496ED90FD900D911C911797F401608167
:100610007181828193810E94C60CE616F706080755
:10062000190709F07CC0EEC0FD0131968C9186302F
:1006300051F1873048F4813099F0813008F447C097
:10064000833009F043C013C0853339F08633F0F1AD
:10065000863311F18F3FD1F53AC06191F08037C0F8
:1006600061912081318142815381D20106C0619123
:100670002081318142815381D3012D933D934D934C
:100680005C93139724C011966C913196208131812F
:1006900042815381D501F1CF6191D8012D913D91D6
:1006A0004D915C91211531054105510549F0898134
:1006B0009A81AB81BC81281739074A075B0739F457
:1006C0002081318142815381D801D7CF6191DF01EF
:1006D000A60FB11DA215B30508F4A6CFC6010E944E
:1006E0000A0101C0FF240D811E81EF81F8850E0FE4
:1006F0001F1F88E294E0612F0E94060789E294E0C0
:10070000602F0E94060781E094E060E40E940607E3
:1007100081E094E00E9425078823D1F701C0FF24DF
:100720008F2D28960FB6F894DEBF0FBECDBFCF91A8
:10073000DF911F910F91FF90EF90DF90CF90BF90CE
:10074000AF909F908F907F906F905F904F903F9071
:100750002F90089588E294E00E942507182F00E06A
:1007600089E294E00E9425075801A80EB11C88E098
:1007700090E00E9460008C0180E0B501A80128E0B3
:1007800030E00E94770AA501485F5F4F58874F838A
:10079000D8018C91898311968C9111978A83129636
:1007A0008C9112978B8313968C9113978C8314964C
:1007B000FC9014971596EC90159716969C911697A9
:1007C00080E017962C91FC01E20FF11DFE83ED8372
:1007D000C8010E940A0182E290E00E946000782E27
:1007E000692EC82ED92E80E06F817885472D592F2C
:1007F00022E230E00E94770AD6018C91823009F41F
:10080000EACE70CFF60180899189A289B389F4017B
:1008100082879387A487B587872D962D0E940A012A
:100820000D811E81005F1040C8010E9460006C01B4
:1008300048EF50E0A40EB51E80E0B501A601980176
:100840000E94770A1601200E311E2EE0422E512CF6
:10085000480C591C92E1692E712C680C791C8AE1B4
:10086000A82EB12CA80CB91C84010A5E1F4FD6011A
:10087000FF2460E02FCF8CE094E06FEF0E9406072A
:100880008DE094E06FEF0E9406078EE094E06FEF3A
:100890000E9406078FE094E06FEF0E94060780E158
:1008A00094E060E00E94060781E194E063E40E9426
:1008B000060708952F923F924F925F926F927F9218
:1008C0008F929F92AF92BF92CF92DF92EF92FF9260
:1008D0000F931F93DF93CF93CDB7DEB767970FB614
:1008E000F894DEBF0FBECDBF6C016F8B7A0184E23E
:1008F00094E00E942507182F00E085E294E00E9412
:1009000025074801880E911C80E290E00E9460005B
:10091000392E082F192F80E2F80111928A95E9F7F4
:1009200081E02801F20181932F01F8018183980170
:100930002E5F3F4F3E8B2D8B86E08283C80103964E
:100940009C8B8B8B1382F6016191719181919191B6
:100950003F010E94C60C6B837C838D839E8398012C
:100960002C5F3F4F3A8B298BF80164837583868314
:1009700097839801285F3F4F388B2F87F086C801F7
:1009800009969E878D87E18680E090E80E94C90CD9
:100990009A838983F8013A96FC87EB87F80193875D
:1009A0008287202E80E0602F732DA4012CE130E09F
:1009B0000E94EA097CE1E72EF12CE80CF91CD80131
:1009C000F30186E001900D928150E1F7B101A7019A
:1009D00020E130E00E94EA0960E1A62EB12CAE0CC5
:1009E000BF1C80E2F80111928A95E9F775012CEE9F
:1009F00030E0820E931E80E0B101A70120E230E0DA
:100A00000E94EA0980E290E0E80EF91EE814F90479
:100A100091F7E0ECF0E0AE0EBF1E93E6F801908394
:100A200082E8F201808383E5ED89FE898083EB898A
:100A3000FC89908385E3E989FA89808398012B5F9B
:100A40003F4F3A87298791E0F801958398012A5F03
:100A50003F4F38872F833F89368357E0852E912C6F
:100A6000800E911E8DE3878387E0EF85F889808370
:100A7000ED85FE859083AB85BC85F30186E0019012
:100A80000D928150E1F78CE0F801808B89E0818B39
:100A9000C801429660E071E00E946F01F601878113
:100AA000F801808FF6018085F801818FF60181853C
:100AB000F801828F80E0B101A5012BE130E00E94B6
:100AC000EA094BE1E42EF12CEA0CFB1CFF89F33020
:100AD00009F03FC082E3F801808394E0F201908343
:100AE000F6018285ED89FE898083F6018385EB8995
:100AF000FC898083F6018485E989FA898083F6017F
:100B00008585E985FA85808386E3EF81F885808392
:100B1000F4019083F6018689EF85F8898083F601D8
:100B20008789ED85FE858083F601808DEB85FC85C8
:100B30008083F601818DF801838780E0B101A701F0
:100B40002CE030E00E94EA0937E2E32EF12CEA0CB7
:100B5000FB1C87E3F801808396E0F201908381E03B
:100B6000ED89FE89808383E0EB89FC898083E989B4
:100B7000FA8990838FE0E985FA8580838AE3EF81A3
:100B8000F88580838BE3F40180838FEFEF85F8890C
:100B9000808380E0B101A70129E030E00E94EA09EA
:100BA00029E030E0E20EF31E0115110519F0C8012D
:100BB0000E940A0184E294E06F2D0E94060785E2FC
:100BC00094E06E2D0E94060781E094E060E20E94AE
:100BD000060781E094E00E9425078823D1F76796F5
:100BE0000FB6F894DEBF0FBECDBFCF91DF911F913E
:100BF0000F91FF90EF90DF90CF90BF90AF909F90BC
:100C00008F907F906F905F904F903F902F900895BE
:100C10002F923F924F925F926F927F928F929F920C
:100C2000AF92BF92CF92DF92EF92FF920F931F93FA
:100C3000DF93CF9300D000D0CDB7DEB76C0129830E
:100C40003A834B835C8327013801A4E0AA2EB12CA0
:100C5000A80EB91E8AE1F50111928A95E9F7D5012E
:100C6000FB0186E001900D928150E1F70E94D208CD
:100C7000C5010E941209FAE0EF2EF12CEC0CFD1CCC
:100C8000C7010E943C0985E565E50E949D0780E05B
:100C900062E044E450E020E00E94990B882321F4B4
:100CA00022242A94322C88C0C6010E943B040E9450
:100CB000990F4B015C0110E0222433241123F9F435
:100CC000F60180819181A281B3810196A11DB11DA0
:100CD00080839183A283B3830E94990F6819790955
:100CE0008A099B0928EE33E040E050E00E94701032
:100CF000C60161E0A9010E945A0411E02BC0113025
:100D0000D1F4C601B301A2010E94AE028230F9F40F
:100D10000E94990F681979098A099B0928EE33E026
:100D200040E050E00E947010C60163E0A9010E94FB
:100D30005A0412E00FC0123069F4C601B301A201D7
:100D40000E94AE02853009F453C0863011F08F3F07
:100D500009F410E0F1E02F16310409F445C00E94B7
:100D6000990F681979098A099B0929813A814B8170
:100D70005C812617370748075907B0F580E00E94C5
:100D80007A0BF60180819181A281B3810196A11D28
:100D9000B11D80839183A283B383F1E02F163104C8
:100DA00059F4C7010E943C09C60142960E94D60828
:100DB000C6010E960E94F408C1010F900F900F908B
:100DC0000F90CF91DF911F910F91FF90EF90DF90E7
:100DD000CF90BF90AF909F908F907F906F905F90DB
:100DE0004F903F902F900895133009F067CFC6CFF2
:100DF00013E0E1E02E2E312CADCFE82FF0E0EE0F26
:100E0000FF1FE45BFD4F808191810895282F84B1FD
:100E10008C6284B92A9A85B1877D85B980E58CBDBD
:100E20002A9880EF8EBD0DB407FEFDCF9EBD0DB498
:100E300007FEFDCF2EBD0DB407FEFDCF6EBD0DB478
:100E400007FEFDCF2A9A81E00895282F84B18C6295
:100E500084B92A9A85B1877D85B980E58CBD2A98A9
:100E60008FE08EBD0DB407FEFDCF9EBD0DB407FE15
:100E7000FDCF2EBD0DB407FEFDCF1EBC0DB407FE89
:100E8000FDCF8EB52A9A0895DC0184B18C6284B9B5
:100E90002A9A85B1877D85B980E58CBD20E030E058
:100EA00090EF19C02A989EBD0DB407FEFDCFBEBDC0
:100EB0000DB407FEFDCFAEBD0DB407FEFDCFFB01A7
:100EC000E20FF31F80818EBD0DB407FEFDCF2A9A7D
:100ED0002F5F3F4F11962417350720F3CA0108955D
:100EE000DC0184B18C6284B92A9A85B1877D85B989
:100EF00080E58CBD20E030E09FE01AC02A989EBDBE
:100F00000DB407FEFDCFBEBD0DB407FEFDCFAEBDD7
:100F10000DB407FEFDCF1EBC0DB407FEFDCF8EB590
:100F2000FB01E20FF31F80832A9A2F5F3F4F119638
:100F30002417350718F3CA0108952F923F924F9254
:100F40005F926F927F928F929F92AF92BF92CF9259
:100F5000DF92EF92FF920F931F93DF93CF9300D016
:100F600000D0CDB7DEB7182F062F8BE190E0612FB0
:100F70000E9406078AE190E0602F0E94060780E049
:100F800090E490935D0280935C0280E090E6909301
:100F90006502809364026CE472E084E592E09C83D5
:100FA0008B83F4E4CF2EF2E0DF2EECE3EE2EE2E0D2
:100FB000FE2EAA24BB24662477248824992440E0AA
:100FC00050E0E12FF0E0FA83E983202E3324FB0187
:100FD00011821082EB81FC8111821082F0E06F1689
:100FE000F0E27F06DCF589819A81042E02C0959596
:100FF00087950A94E2F78370907081309105A1F093
:10100000823091051CF4892B39F028C0823091057B
:1010100099F0039719F518C080E094E0FB019183E3
:1010200080838FEF93E017C080E098E0FB0191830D
:1010300080838FEF97E00FC080E090E1FB01918308
:1010400080838FEF9FE007C080E090E2FB019183F7
:1010500080838FEF9FE1F7019183808390E0891671
:1010600090E299060CF03EC0C101042E02C0959595
:1010700087950A94E2F78370907081309105A9F00A
:10108000823091051CF4892B39F02CC082309105F7
:10109000A9F0039739F51BC080E094E0EB81FC8157
:1010A000918380838FEF93E01AC080E098E0EB811A
:1010B000FC81918380838FEF97E011C080E090E105
:1010C000EB81FC81918380838FEF9FE008C080E0FB
:1010D00090E2EB81FC81918380838FEF9FE1F601A9
:1010E00091838083FB0140805180EB81FC810081F2
:1010F0001181A114B104F1F0FA01E45AFD4FDA01B3
:10110000A65BBD4F8D919C91329122913296820FB8
:10111000931F91838083FA01EC59FD4FDA01AE5A97
:10112000BD4F8D919C91329122913296820F931FE7
:10113000918380830894A11CB11C6E5F7F4F4E5F2A
:101140005F4F8B819C8102969C838B83E2E0F0E071
:10115000CE0EDF1EEE0EFF1EF4E0AF16B10429F036
:10116000640C751C800E911E32CF0F900F900F9063
:101170000F90CF91DF911F910F91FF90EF90DF9033
:10118000CF90BF90AF909F908F907F906F905F9027
:101190004F903F902F900895682F80E090E80E9434
:1011A0000607089580E80E94CC0808950F931F93C6
:1011B0008C0181E090E0F80160810E94060782E0E6
:1011C00090E0F80161810E94060783E090E0F80159
:1011D00062810E94060784E090E0F80163810E942A
:1011E00006071F910F9108950F931F938C0185E0BF
:1011F00090E0F80160810E94060786E090E0F80127
:1012000061810E94060787E090E0F80162810E94F8
:10121000060788E090E0F80163810E9406071F91AD
:101220000F9108950F931F938C0189E090E0F801CE
:1012300060810E9406078AE090E0F80161810E94C7
:1012400006078BE090E0F80162810E9406078CE0BF
:1012500090E0F80163810E9406078DE090E0F801BC
:1012600064810E9406078EE090E0F80165810E948B
:1012700006071F910F9108950F931F938C018FE024
:1012800090E0F80160810E94060780E190E0F8019B
:1012900061810E94060781E190E0F80162810E946D
:1012A000060782E190E0F80163810E9406071F9122
:1012B0000F91089590E0982F88278D5F9B4F0E9493
:1012C000250708958F929F92AF92BF92CF92DF929F
:1012D000EF92FF920F931F93CF93DF9390E0982F9D
:1012E0008827805E9B4F4C015C010894A11CB11CB7
:1012F000C0E0D0E0C4010E942507F82EEE24C5010D
:101300000E9425076701C80ED11CC114D10459F0F1
:10131000C4010E942507182F00E0C5010E9425077F
:10132000E801C80FD11DCC15DD0521F7CE01DF91F5
:10133000CF911F910F91FF90EF90DF90CF90BF90D2
:10134000AF909F908F9008958F929F92AF92BF928F
:10135000CF92DF92EF92FF920F931F93CF93DF9381
:1013600090E00496982F882716E2812E912C880E03
:10137000991EB7E2AB2EB12CA80EB91EC0E0D0E08A
:10138000C4010E942507F82EEE24C5010E942507FE
:101390006701C80ED11CC114D10459F0C4010E94C8
:1013A0002507182F00E0C5010E942507E801C80F96
:1013B000D11DCC15DD0521F7CE01DF91CF911F9115
:1013C0000F91FF90EF90DF90CF90BF90AF909F90E4
:1013D0008F900895CF92DF92EF92FF920F931F9319
:1013E000CF93DF937B01E901E82FF0E0EE0FFF1FC1
:1013F000DF01A45CBD4F8D919C91482359238CE55E
:10140000C82E82E0D82ECE0EDF1ED6012D913C9143
:10141000240F351FE45BFD4F0190F081E02DCA01E0
:101420008C0F9D1FE817F90780F48F01041B150B23
:10143000C901A8010E944407C01BD10BF60180819D
:1014400091810E0D1F1DB80101C0C901AE010E949E
:101450004407DF91CF911F910F91FF90EF90DF90A4
:10146000CF9008957F928F929F92AF92BF92CF922A
:10147000DF92EF92FF920F931F93782E4B015A0148
:10148000E82EFF2484E090E0E80EF91EFE2CEE2406
:1014900024E2C22ED12CCE0CDF1CC6010E942507EF
:1014A000182F00E085E290E0E80EF91EC7010E94C7
:1014B0002507080F111D872DB401A80195010E9471
:1014C000EA090A0D1B1DC601612F0E940607C7010C
:1014D000602F0E9406071F910F91FF90EF90DF9001
:1014E000CF90BF90AF909F908F907F900895CF92B4
:1014F000DF92EF92FF920F931F93CF93DF937A01C6
:10150000E901E82FF0E0EE0FFF1FDF01AC5BBD4FFC
:101510008D919C916823792344E6C42E42E0D42E19
:10152000CE0EDF1ED6012D913C91260F371FEC5AAF
:10153000FD4F0190F081E02DCE01860F971FE81737
:10154000F90788F48F01061B170BC901B701A80121
:101550000E947007C01BD10BF601808191810E0D96
:101560001F1DB80102C0C901B701AE010E9470077A
:10157000DF91CF911F910F91FF90EF90DF90CF906F
:1015800008957F928F929F92AF92BF92CF92DF92F7
:10159000EF92FF920F931F93782E4B015A01E82E82
:1015A000FF2484E090E0E80EF91EFE2CEE2468E2B1
:1015B000C62ED12CCE0CDF1CC6010E942507182F89
:1015C00000E089E290E0E80EF91EC7010E942507BD
:1015D000080F111D872DB801A40195010E94770AFB
:1015E0000A0D1B1DC601612F0E940607C701602F4F
:1015F0000E9406071F910F91FF90EF90DF90CF9010
:10160000BF90AF909F908F907F900895CF93DF937E
:1016100090E0D82FCC27CF5FDB4FCE0168E00E944F
:101620000607CE010E9425078823D9F7DF91CF91C5
:101630000895CF92DF92EF92FF920F931F93CF9373
:10164000DF93082FEB016A0168816F3F51F48981B4
:101650008F3F91F48A818F3F79F48B818F3F61F4C2
:101660003FC0662349F48981882331F48A81882325
:1016700019F48B818823A1F1C114D10489F110E000
:101680000C5F1F4FF02EEE24C7010C960E94060738
:10169000C7010D9669810E940607C7010E966A81EF
:1016A0000E940607C7010F966B810E9406078701FB
:1016B000005F1F4FC8016D2D0E940607C8010196EB
:1016C0006C2D0E940607E7012196CE0164E00E947E
:1016D0000607CE010E9425078823D9F781E001C0C3
:1016E00080E0DF91CF911F910F91FF90EF90DF90FD
:1016F000CF9008950F931F93CF93DF93082F10E09F
:101700000C5F1F4FD02FCC272196CE0160E10E94A5
:101710000607CE010E9425078823D9F7902F882736
:1017200002966FEF0E940607DF91CF911F910F91F4
:101730000895CF92DF92EF92FF920F931F93CF9372
:10174000DF93082FE62EEA01F22E862F8150853096
:1017500010F080E049C0802F0E947A0B10E00C5FEF
:101760001F4FD02ECC24FE28C6016F2D0E940607E5
:10177000B6E0000F111FBA95E1F7209771F00F5FE7
:101780001F4F000F111F000F111FC8016D2F0E9466
:101790000607C80101966C2F18C020916C02309189
:1017A0006D022F5F3F4F30936D0220936C020F5FED
:1017B0001F4F000F111F000F111FC801632F0E9440
:1017C0000607C801019660916C020E940607860117
:1017D0000F5F1F4FC80161E00E940607C8010E9409
:1017E00025078823D9F781E0DF91CF911F910F91D1
:1017F000FF90EF90DF90CF900895FF920F931F938B
:10180000CF93DF93F82E8A014115510519F440E07A
:1018100050E010C00E94C10ADF2DC0E0CF5FDB4F57
:10182000CE0160E40E940607CE010E9425078823AE
:10183000D9F7A801CA01DF91CF911F910F91FF90B5
:1018400008956F927F928F929F92BF92CF92DF9274
:10185000EF92FF920F931F93CF93DF93B82E3B012C
:10186000EA010E94FD068C179D0710F08E0104C04E
:101870008B2D0E94FD068C01EB2CFF2484E090E070
:10188000E80EF91EDE2CCC2453E0852E912C8C0C16
:101890009D1C8B2D0E946209EC01C4010E9425074A
:1018A000873129F08C3119F000E010E003C0C01737
:1018B000D10778F38B2DB301A8010E94320AE6010B
:1018C0002196CE0160E20E940607CE010E94250704
:1018D0008823D9F70BC0C4010E942507882349F447
:1018E0008B2D0E947A0B00E010E00CC0DE2DCC277F
:1018F0002296CE010E94250784FFEDCFCE0160E144
:101900000E940607C801DF91CF911F910F91FF90B0
:10191000EF90DF90CF90BF909F908F907F906F90CF
:101920000895582F40E0292F30E0242B352BC90192
:101930000895EF92FF920F931F93562F442733275A
:101940002227E92EFF2400271127E22AF32A042B5D
:10195000152B272F30E040E050E0A9013327222744
:10196000E22AF32A042B152B672F782F892F99272A
:10197000607080709070E62AF72A082B192BB70147
:10198000C8011F910F91FF90EF9008950E94990C4C
:1019900008950E94910C08958FE692E063E072E052
:1019A00040E550E00E94A701089580916E028823CF
:1019B00021F18FE692E00E94CA01892B49F08FE65F
:1019C00092E00E94E801682F8AE892E00E941B10D2
:1019D0008FE692E00E94CF01882381F48AE892E0AA
:1019E0000E943B108AE892E067E071E00E9452108A
:1019F0008FE692E00E94B101FFCFFFCF08954F9292
:101A00005F926F927F928F929F92AF92BF92CF928E
:101A1000DF92EF92FF920F931F93DF93CF93CDB797
:101A2000DEB72A970FB6F894DEBF0FBECDBF7C019C
:101A30003B014A0159016801FE0131968AE0DF014C
:101A40001D928A95E9F700E010E02F0116C00115FC
:101A5000110521F0C701B3010E942310F401E00F2A
:101A6000F11F808190E0B201A6010E947601BC01C5
:101A7000C7010E9423100F5F1F4F0A151B053CF37F
:101A8000C7010E943B102A960FB6F894DEBF0FBE26
:101A9000CDBFCF91DF911F910F91FF90EF90DF901D
:101AA000CF90BF90AF909F908F907F906F905F90FE
:101AB0004F900895EF92FF920F931F93DF93CF9370
:101AC00000D000D000D0CDB7DEB78AE892E040E881
:101AD00055E260E070E00E9416108AE892E066E14C
:101AE00071E00E9452108EE192E06DEF71E020E60D
:101AF0003AEE40E050E0E0EDEE2EE7E0FE2E012D64
:101B0000112D0E940806019709F0B1C081E0809371
:101B10006E028AE892E064E271E00E9452108EE167
:101B200092E07E010894E11CF11CB7010E94A5021D
:101B30008AE892E063E371E00E9423108AE892E071
:101B400061E471E0A70126E030E000E110E00E94CE
:101B5000FF0C8EE192E0B7010E9496028AE892E0C3
:101B600063E471E00E9423108AE892E060E571E08E
:101B7000A70124E030E00AE010E00E94FF0C8EE1B3
:101B800092E0B7010E9487028AE892E062E571E084
:101B90000E9423108AE892E060E571E0A70124E04A
:101BA00030E00E94FF0C8EE192E0B7010E947802C3
:101BB0008AE892E060E671E00E9423108AE892E0F1
:101BC00060E571E0A70124E030E00E94FF0C8EE1A7
:101BD00092E0B7010E9469028AE892E06DE671E046
:101BE0000E9423108AE892E060E571E0A70124E0FA
:101BF00030E00E94FF0C8EE192E0B7010E945A0291
:101C00008AE892E06EE771E00E9423108AE892E091
:101C100060E571E0A70124E030E00E94FF0C68EB72
:101C20007BE080E090E00E94A70F8AE892E06EE8F7
:101C300071E00E9452108FE692E00E941F028823FA
:101C400089F08AE892E06CE971E00E9452108FE618
:101C500092E066EA71E00E9452108FE692E00E94E4
:101C60003B100BC08AE892E065EC71E004C08AE8A2
:101C700092E067ED71E00E94521026960FB6F8943C
:101C8000DEBF0FBECDBFCF91DF911F910F91FF90AF
:101C9000EF9008950E94D10F0E945A0D0E94D50C1A
:101CA000FDCFEF92FF920F931F937B018C0122E0F7
:101CB00030E040E050E00E949210205C3D4B404FED
:101CC0005F4FCA01B901A80197010E949210C90192
:101CD000DA010197A109B109292F3A2F4B2F552776
:101CE00047FD5A950196A11DB11D2093C500815055
:101CF0008093C400E1ECF0E080818061808380818A
:101D0000886080838081806880831F910F91FF901D
:101D1000EF900895982F8091C00085FFFCCF90939D
:101D2000C60008951F920F920FB60F9211242F93A1
:101D30003F934F935F936F937F938F939F93AF9353
:101D4000BF93EF93FF934091C600E0917602F0912C
:101D50007702CF01019660E870E00E945D109C015F
:101D600080917802909179022817390739F0E45769
:101D7000FD4F40833093770220937602FF91EF91DD
:101D8000BF91AF919F918F917F916F915F914F9193
:101D90003F912F910F900FBE0F901F9018951F929B
:101DA0000F920FB60F9211242F933F934F935F938F
:101DB0006F937F938F939F93AF93BF93EF93FF9313
:101DC00080917A0290917B02892B29F0E0917A022E
:101DD000F0917B020995FF91EF91BF91AF919F9197
:101DE0008F917F916F915F914F913F912F910F90C4
:101DF0000FBE0F901F9018951F920F920FB60F9263
:101E000011242F933F934F935F936F937F938F93FF
:101E10009F93AF93BF93EF93FF9380917C02909138
:101E20007D02892B29F0E0917C02F0917D020995D9
:101E3000FF91EF91BF91AF919F918F917F916F91A2
:101E40005F914F913F912F910F900FBE0F901F9078
:101E500018951F920F920FB60F9211242F938F9304
:101E60009F93AF93BF9380917E0290917F02A09148
:101E70008002B09181020196A11DB11D80937E0266
:101E800090937F02A0938002B0938102809182029E
:101E900090918302A0918402B09185028050904C71
:101EA000AF4FBF4F8093820290938302A09384022E
:101EB000B093850227C08091820290918302A09105
:101EC0008402B091850280589E43A040B040809328
:101ED000820290938302A0938402B0938502809142
:101EE000860290918702A0918802B09189020196A2
:101EF000A11DB11D8093860290938702A093880252
:101F0000B09389028091820290918302A091840211
:101F1000B091850281589E43A040B04060F6BF91C9
:101F2000AF919F918F912F910F900FBE0F901F90A7
:101F300018958FB7F89420918602309187024091CE
:101F40008802509189028FBFB901CA010895EF92AA
:101F5000FF920F931F937B018C018FB7F8944091F0
:101F600086025091870260918802709189028FBF2A
:101F70002FB7F8948091860290918702A0918802F1
:101F8000B09189022FBF841B950BA60BB70BE816E7
:101F9000F9060A071B0760F71F910F91FF90EF905A
:101FA0000895789484B5826084BD84B5816084BDD1
:101FB00085B5826085BD85B5816085BDEEE6F0E0C2
:101FC000808181608083E1E8F0E0808182608083AD
:101FD000808181608083E0E8F0E08081816080839F
:101FE000E1EBF0E0808184608083E0EBF0E08081D1
:101FF00081608083EAE7F0E0808184608083808173
:10200000826080838081816080838081806880831A
:102010001092C100089581E192E090938B02809329
:102020008A020895862F0E948A0E0895CB01BA0174
:102030000E94510E0895DC01ED91FC910190F08118
:10204000E02D099508950F931F93CF93DF938C0193
:10205000EB0109C02196D801ED91FC910190F0812E
:10206000E02DC801099568816623A1F7DF91CF9122
:102070001F910F9108950F931F938C01DC01ED9137
:10208000FC910190F081E02D6DE00995D801ED9172
:10209000FC910190F081E02DC8016AE009951F9143
:1020A0000F9108950F931F938C010E942310C80174
:1020B0000E943B101F910F91089597FB092E072650
:1020C0000AD077FD04D049D006D000201AF47095CC
:1020D00061957F4F0895F6F7909581959F4F0895EC
:1020E000A1E21A2EAA1BBB1BFD010DC0AA1FBB1F1C
:1020F000EE1FFF1FA217B307E407F50720F0A21B8E
:10210000B30BE40BF50B661F771F881F991F1A94FA
:1021100069F760957095809590959B01AC01BD0124
:10212000CF01089597FB092E05260ED057FD04D048
:10213000D7DF0AD0001C38F4509540953095219592
:102140003F4F4F4F5F4F0895F6F7909580957095EC
:1021500061957F4F8F4F9F4F0895AA1BBB1B51E185
:1021600007C0AA1FBB1FA617B70710F0A61BB70B07
:10217000881F991F5A95A9F780959095BC01CD01AC
:102180000895EE0FFF1F0590F491E02D0994F89447
:02219000FFCF7F
:1021920057495A6E657400646973636F6E6E656346
:1021A20074696E672E0067657474696E6720697062
:1021B2002E2E2E0069702061637175697265642E1E
:1021C2002E2E006D616320616464726573733A2020
:1021D200003A00697020616464726573733A20008A
:1021E2002E007375626E6574206D61736B3A200008
:1021F200676174657761792069703A200064686369
:1022020070207365727665722069703A2000646E80
:1022120073207365727665722069703A2000636F6D
:102222006E6E656374696E672E2E2E00636F6E6E1E
:10223200656374656400474554202F73656172635A
:10224200683F713D61726475696E6F2048545450E5
:102252002F312E3000636F6E6E656374696F6E206E
:102262006661696C656400756E61626C6520746F8D
:10227200206163717569726520697020616464729E
:102282006573732E2E2E00200010030000DEADBEFB
:10229200EFFEED40E9BB63000000000C020000000D
:0422A2000012100016
:00000001FF
